:100000004CC0000067C0000065C0000063C0000075
:1000100061C000005FC000005DC000005BC0000068
:1000200059C0000057C0000055C0000053C0000078
:1000300051C0000074C000004DC000004BC0000063
:1000400049C0000047C0000045C0000043C0000098
:1000500041C000003FC000003DC000003BC00000A8
:1000600039C0000037C0000035C0000033C00000B8
:1000700031C000002FC000002DC000002BC00000C8
:1000800029C0000027C0000025C00000EF00F300D9
:10009000F7001B0107010E01140111241FBECFEF51
:1000A000D0E4DEBFCDBF11E0A0E0B1E0E6E3F3E0D5
:1000B00000E00BBF02C007900D92A830B107D9F73E
:1000C00021E0A8E0B1E001C01D92A331B207E1F741
:1000D00014D12FC195CF8BE0809381008DE790E004
:1000E000909389008093880082E080936F00109243
:1000F0008500109284008091030190910401A091E9
:100100000501B091060180930D0190930E01A0931B
:100110000F01B09310018FB780688FBF08951F92B1
:100120000F920FB60F9211248F939F93AF93BF93AB
:1001300080910D0190910E01A0910F01B0911001DD
:100140000197A109B10980930D0190930E01A0932D
:100150000F01B0931001892B8A2B8B2B99F481E02E
:10016000809311018091030190910401A0910501F8
:10017000B091060180930D0190930E01A0930F01A1
:10018000B0931001BF91AF919F918F910F900FBECF
:100190000F901F9018956093030170930401809352
:1001A00005019093060160930D0170930E018093F9
:1001B0000F0190931001089580B191E0382F3170B4
:1001C00080FD90E090930B0120911201822F90E02E
:1001D00087309105A0F5FC01EA5BFF4FA1C081E0EB
:1001E000809312013CC082E0809312013FC0809155
:1001F000080190910901039708F47BC083E0809384
:100200001201311145C084E08093120150C03323A4
:1002100009F44DC085E08093120156C0311154C0DD
:1002200086E08093120159C0332309F456C082E05E
:10023000809312011BC082E08093120117C023300B
:1002400039F130F4213059F0223009F04EC00EC09F
:100250002530D1F160F1263009F047C03EC0109240
:1002600009011092080110920A013FC0E0910A01B1
:10027000F0E0E050FF4F808180930C0180910801F5
:1002800090910901019690930901809308012DC076
:1002900080910A01823018F010920A0103C08F5F2A
:1002A00080930A0110920901109208011EC0109259
:1002B000090110920801E0910A01F0E0E050FF4FBF
:1002C000808180930C0111C0E0910A01F0E0E050C0
:1002D000FF4F808180930C0108C0E0910A01F0E09B
:1002E000E050FF4F808180930C0180910C0185B913
:1002F0000895332309F487CFB9CF8FEF84B915B8A8
:1003000011B882B964E670E080E090E044DFE3DE9B
:1003100053DF809111018823E1F310921101F8CF8E
:10032000EE0FFF1F0024001C0BBE0790F691E02D7E
:060330000994F894FFCFD0
:080336000102040100000000B7
:00000001FF
