S01B00006A696D3031315F6C616231315F7061727430312E73726563D0
S11300008AC00000A5C00000A3C00000A1C0000079
S11300109FC000009DC000009BC0000099C000006C
S113002097C0000095C0000093C0000091C000007C
S11300308FC000001AC100008BC0000089C00000FE
S113004087C0000085C0000083C0000081C000009C
S11300507FC000007DC000007BC0000079C00000AC
S113006077C0000075C0000073C0000071C00000BC
S11300706FC000006DC000006BC0000069C00000CC
S113008067C0000065C0000063C00000B800FA004B
S1130090FA00FA00FA00FA00FA00FA00FA00FA008C
S11300A0FA00FA00FA00FA00FA00FA00FA00FA007C
S11300B0FA00FA00FA00FA00FA00FA00FA00FA006C
S11300C0FA00FA00FA00FA00FA00FA00FA00FA005C
S11300D0FA00F600FA00FA00FA00FA00FA00FA0050
S11300E0EF00FA00FA00FA00FA00FA00F300BC008C
S11300F0BF00C300C700CB00CF00D300D700DB0094
S1130100FA00FA00FA00FA00FA00FA00FA00DF0036
S1130110E300E700EB0011241FBECFEFD0E4DEBF05
S1130120CDBF11E0A0E0B1E0E6EAF4E000E00BBFEF
S113013002C007900D92A630B107D9F721E0A6E0DE
S1130140B1E001C01D92A132B207E1F721D1A9C1EA
S113015057CF823008F052C0E09100018E2F90E01A
S11301608534910508F046C0FC01EA5BFF4F90C15D
S11301708FE185B981E0089581E085B9089582E031
S113018085B981E0089583E085B981E0089584E02C
S113019085B981E0089585E085B981E0089586E018
S11301A085B981E0089587E085B981E0089588E004
S11301B085B981E0089589E085B981E008958AE0F0
S11301C085B981E008958BE085B981E008958CE0DC
S11301D085B981E008958DE085B981E008958EE0C8
S11301E085B981E0089515B881E008958FE085B957
S11301F081E008958BE185B981E0089580E0089558
S113020060930101709302018093030190930401B0
S113021060931C0170931D0180931E0190931F0134
S113022008958BE0809381008DE790E0909389009E
S11302308093880082E080936F0010928500109272
S113024084008091010190910201A0910301B09179
S1130250040180931C0190931D01A0931E01B0938F
S11302601F018FB780688FBF08951F920F920FB63A
S11302700F9211248F939F93AF93BF9380911C018E
S113028090911D01A0911E01B0911F010197A10938
S1130290B10980931C0190931D01A0931E01B0939A
S11302A01F01892B8A2B8B2B99F481E080932001E9
S11302B08091010190910201A0910301B091040188
S11302C080931C0190931D01A0931E01B0931F0104
S11302D0BF91AF919F918F910F900FBE0F901F9080
S11302E018958FEE88B90000309B29C0319B29C036
S11302F0329B29C0339B29C08FED88B90000309B05
S113030026C0319B26C0329B26C0339B26C08FEB70
S113031088B90000309B23C0319B23C0329B23C08B
S1130320339B23C08FE788B90000309B20C0319BEA
S113033020C0329B20C0339B20C080E0089581E31D
S1130340089584E3089587E308958AE2089582E393
S1130350089585E3089588E3089580E3089583E389
S1130360089586E3089589E3089583E2089581E476
S1130370089582E4089583E4089584E4089582301E
S113038028F4AFDF8093000181E0089580E00895B0
S1130390CF93DF9300D000D0CDB7DEB780EF87B91D
S11303A08FE088B98FEF84B915B8A1E1B1E0BA83C1
S11303B0A983E6E0F1E0FC83EB838C9341E050E019
S11303C060E070E011964D935D936D937C93149768
S11303D015964D935D936D937C9318972FEB31E0B5
S11303E01A963C932E931997808341835283638397
S11303F07483458356836783708789EA90E0928784
S1130400818762E370E080E090E0FADE0ADF7E013B
S113041085E0E80EF11CDE0111966D01F6010191F3
S113042011916F01D80115964D915D916D917C915B
S1130430189711968D919D910D90BC91A02D481700
S113044059076A077B0771F4F80180810184F285FA
S1130450E02D90E00995D8018C93F801158216825D
S113046017821086F80185819681A781B08501964F
S1130470A11DB11D85839683A783B087CE14DF04A5
S113048069F6809120018823E1F310922001C3CF03
S1130490EE0FFF1F0024001C0BBE0790F691E02D09
S10904A00994F894FFCF5B
S10904A63001000000001B
S9030000FC
