S01B00006A696D3031315F6C616231315F7061727430322E73726563CF
S113000045C0000060C000005EC000005CC000008D
S11300105AC0000058C0000056C0000054C0000080
S113002052C0000050C000004EC000004CC0000090
S11300304AC00000BDC0000046C0000044C000002B
S113004042C0000040C000003EC000003CC00000B0
S11300503AC0000038C0000036C0000034C00000C0
S113006032C0000030C000002EC000002CC00000D0
S11300702AC0000028C0000026C0000024C00000E0
S113008022C0000020C000001EC0000011241FBEBA
S1130090CFEFD0E4DEBFCDBF11E0A0E0B1E0E4EDEE
S11300A0F3E000E00BBF02C007900D92AC33B10740
S11300B0D9F721E0ACE3B1E001C01D92AD34B20741
S11300C0E1F73CD185C19CCF181619065CF0089560
S11300D0000021503109E1F74F5F5F4F8417950706
S11300E019F4089540E050E027E033E0F1CF109890
S11300F08BB9119A0000119882E090E0E5CF089541
S113010081E0F5CF0895813118F48158F0CF089536
S11301108155EDCF089584E690E0D6DF88E3E7DFEC
S113012086E0E5DF8FE0E3DF81E0E1DF8AE090E075
S1130130CBCF0895109A8BB9119A0000119881E0E1
S113014090E0C2CF08956093370170933801809393
S1130150390190933A016093470170934801809369
S1130160490190934A0108958BE0809381008DE7C3
S113017090E0909389008093880082E080936F00E0
S1130180109285001092840080913701909138017B
S1130190A0913901B0913A018093470190934801AD
S11301A0A0934901B0934A018FB780688FBF089527
S11301B01F920F920FB60F9211248F939F93AF93B8
S11301C0BF938091470190914801A0914901B0915A
S11301D04A010197A109B10980934701909348010D
S11301E0A0934901B0934A01892B8A2B8B2B99F454
S11301F081E080934B018091370190913801A09167
S11302003901B0913A018093470190934801A0933A
S11302104901B0934A01BF91AF919F918F910F9083
S11302200FBE0F901F901895FF920F931F93CF93BB
S1130230DF93082FF62E172F63DF023058F0CF2DEF
S1130240D12F81E011E0180F5EDF899173DF812FD8
S11302500113F8CFDF91CF911F910F91FF90089573
S1130260CF93DF93442309F440C0E7E2F1E02FEF9A
S1130270240F30E0D901A85DBE4F50E25193EA1734
S1130280FB07E1F76417F0F4662379F1DC01C1E0C0
S1130290D0E0C61BD109C20FD31FC95DDE4F615028
S11302A0262F30E02F5F3F4F820F931F2D9129930C
S11302B0A817B907D9F719C082918E93A217B3076B
S11302C0D9F713C070E06F5F7F4FFC01E60FF71F93
S11302D0A42FB0E09D0121503109A95DBE4F4150CA
S11302E0241B3109295D3E4FE7CFDF91CF9108955B
S11302F0CF93C82F813059F030F08230D9F48091F7
S11303004C01853328F010924C01C1E001C0C2E0D9
S11303102091000140E160914C0182E091E0A0DF76
S113032067E271E080E180DF80914C018F5F809310
S11303304C0101C0C0E08C2FCF9108958FEF81B99B
S113034012B88AB91BB8ECE3F1E0808381E090E055
S1130350A0E0B0E081839283A383B48385839683F2
S1130360A783B08788E791E09287818768EC70E083
S113037080E090E0E8DEF8DECEDECCE3D1E04D8133
S11303805E816F81788589819A81AB81BC814817B0
S113039059076A077B0751F48881E985FA8590E05B
S11303A0099588831D821E821F8218868D819E81F5
S11303B0AF81B8850196A11DB11D8D839E83AF8346
S11303C0B88780914B018823E1F310924B01D7CF7A
S10703D0F894FFCFCB
S11303D42500435331323042206973204C656765EC
S11303E46E642E2E2E207761697420666F722069E4
S11303F474204441525921200000000000000000F0
S10F0404000000000000000100000000E7
S9030000FC
