S01B00006A696D3031315F6C616230385F7061727430332E73726563C8
S113000045C0000060C000005EC000005CC000008D
S11300105AC0000058C0000056C0000054C0000080
S113002052C0000050C000004EC000004CC0000090
S11300304AC000006DC0000046C0000044C000007B
S113004042C0000040C000003EC000003CC00000B0
S11300503AC0000038C0000036C0000034C00000C0
S113006032C0000030C000002EC000002CC00000D0
S11300702AC0000028C0000026C0000024C00000E0
S113008022C0000020C000001EC0000011241FBEBA
S1130090CFEFD0E4DEBFCDBF11E0A0E0B1E0E4E4F7
S11300A0F2E000E00BBF02C007900D92A430B1074C
S11300B0D9F721E0A4E0B1E001C01D92AF30B2074E
S11300C0E1F7AAD0BDC09CCF8BE0809381008DE77F
S11300D090E0909389008093880082E080936F0081
S11300E0109285001092840080910001909101018A
S11300F0A0910201B091030180930701909308013C
S1130100A0930901B0930A018FB780688FBF089547
S11301101F920F920FB60F9211248F939F93AF9358
S1130120BF938091070190910801A0910901B091BA
S11301300A010197A109B10980930701909308016D
S1130140A0930901B0930A01892B8A2B8B2B99F474
S113015081E080930B018091000190910101A091B5
S11301600201B09103018093070190930801A093C9
S11301700901B0930A01BF91AF919F918F910F90A4
S11301800FBE0F901F9018956093000170930101AA
S11301908093020190930301609307017093080117
S11301A08093090190930A010895EAE7F0E08081C1
S11301B0806E808308958091780090917900C09733
S11301C090930D0180930C0120910E01222319F0CC
S11301D0213029F008C081E080930E0109C022E09B
S11301E020930E010CC0213019F0223089F407C08D
S11301F010920501109204011092060109C0803585
S1130200910520F081E08093060102C0109206015E
S11302108091060185B9089511B88FEF82B984B928
S113022015B8C3DF64E670E080E090E0ADDF4CDF3A
S1130230C2DF80910B018823E1F310920B01F8CF08
S1070240F894FFCF5C
S107024401000000B1
S9030000FC
