:1000000045C0000060C000005EC000005CC0000091
:100010005AC0000058C0000056C0000054C0000084
:1000200052C0000050C000004EC000004CC0000094
:100030004AC000007EC0000046C0000044C000006E
:1000400042C0000040C000003EC000003CC00000B4
:100050003AC0000038C0000036C0000034C00000C4
:1000600032C0000030C000002EC000002CC00000D4
:100070002AC0000028C0000026C0000024C00000E4
:1000800022C0000020C000001EC0000011241FBEBE
:10009000CFEFD0E4DEBFCDBF11E0A0E0B1E0E2E3FE
:1000A000F4E000E00BBF02C007900D92A630B1074C
:1000B000D9F721E0A6E0B1E001C01D92A232B2075B
:1000C000E1F732D1B4C19CCF60930101709302017A
:1000D000809303019093040160931D0170931E01AE
:1000E00080931F019093200108958BE080938100FD
:1000F0008DE790E0909389008093880082E0809360
:100100006F001092850010928400809101019091FF
:100110000201A0910301B091040180931D0190930D
:100120001E01A0931F01B09320018FB780688FBF7D
:1001300008951F920F920FB60F9211248F939F93E1
:10014000AF93BF9380911D0190911E01A0911F015B
:10015000B09120010197A109B10980931D019093ED
:100160001E01A0931F01B0932001892B8A2B8B2B9A
:1001700099F481E080932101809101019091020125
:10018000A0910301B091040180931D0190931E0181
:10019000A0931F01B0932001BF91AF919F918F91C8
:1001A0000F900FBE0F901F9018958FEE88B900002A
:1001B000309B29C0319B29C0329B29C0339B29C069
:1001C0008FED88B90000309B26C0319B26C0329B42
:1001D00026C0339B26C08FEB88B90000309B23C01C
:1001E000319B23C0329B23C0339B23C08FE788B948
:1001F0000000309B20C0319B20C0329B20C0339B2D
:1002000020C080E0089581E3089584E3089587E3A2
:1002100008958AE2089582E3089585E3089588E3C6
:10022000089580E3089583E3089586E3089589E3BC
:10023000089583E2089581E4089582E4089583E4B3
:10024000089584E40895CF93C82FAFDFC23061F0E2
:1002500028F4CC2379F0C130E1F004C0C33039F088
:10026000C430B9F0C0E016C0811109C013C08823A2
:1002700051F005C080E380931C01C1E00BC0809366
:100280001C01C3E007C080911C0180930001C4E001
:1002900001C0C2E08C2FCF910895181619065CF0AA
:1002A0000895000021503109E1F74F5F5F4F841737
:1002B000950719F4089540E050E027E033E0F1CFCE
:1002C00010988BB9119A0000119882E090E0E5CF68
:1002D0000895813118F48158F3CF08958155F0CFF6
:1002E000089584E690E0D9DF88E3EADF86E0E8DF7E
:1002F0008FE0E6DF81E0E4DF8AE090E0CECF089592
:10030000109A8BB9119A0000119881E090E0C5CF46
:100310000895823038F480910001F2DF81E0D9DF66
:1003200081E0089580E00895CF93DF9300D000D05E
:10033000CDB7DEB780EF87B98FE088B98FEF81B98D
:1003400012B88AB91BB8A1E1B1E0BA83A983E6E08B
:10035000F1E0FC83EB838C9341E050E060E070E0DF
:1003600011964D935D936D937C93149715964D93D1
:100370005D936D937C93189723E231E01A963C933A
:100380002E931997808341835283638374834583BB
:1003900056836783708789E891E09287818762E35B
:1003A00070E080E090E090DEA0DE9BDF7E0185E0E3
:1003B000E80EF11CDE0111966D01F601019111911B
:1003C0006F01D80115964D915D916D917C911897B3
:1003D00011968D919D910D90BC91A02D48175907B4
:1003E0006A077B0771F4F80180810184F285E02DB2
:1003F00090E00995D8018C93F80115821682178236
:100400001086F80185819681A781B0850196A11D8E
:10041000B11D85839683A783B087CE14DF0469F668
:10042000809121018823E1F310922101C3CFF89438
:02043000FFCFFC
:060432005801000000006B
:00000001FF
