S01B00006A696D3031315F6C616230365F7061727430312E73726563CC
S113000045C0000060C000005EC000005CC000008D
S11300105AC0000058C0000056C0000054C0000080
S113002052C0000050C000004EC000004CC0000090
S11300304AC000006DC0000046C0000044C000007B
S113004042C0000040C000003EC000003CC00000B0
S11300503AC0000038C0000036C0000034C00000C0
S113006032C0000030C000002EC000002CC00000D0
S11300702AC0000028C0000026C0000024C00000E0
S113008022C0000020C000001EC0000011241FBEBA
S1130090CFEFD0E4DEBFCDBF11E0A0E0B1E0ECE7EC
S11300A0F2E000E00BBF02C007900D92A830B10748
S11300B0D9F721E0A8E0B1E001C01D92A231B20756
S11300C0E1F7C9D0D9C09CCF8BE0809381008DE744
S11300D090E0909389008093880082E080936F0081
S11300E01092850010928400809103019091040184
S11300F0A0910501B091060180930C0190930D012C
S1130100A0930E01B0930F018FB780688FBF08953D
S11301101F920F920FB60F9211248F939F93AF9358
S1130120BF9380910C0190910D01A0910E01B091AB
S11301300F010197A109B10980930C0190930D015E
S1130140A0930E01B0930F01892B8A2B8B2B99F46A
S113015081E0809310018091030190910401A091AA
S11301600501B091060180930C0190930D01A093B9
S11301700E01B0930F01BF91AF919F918F910F909A
S11301800FBE0F901F9018956093030170930401A4
S1130190809305019093060160930C0170930D0107
S11301A080930E0190930F01089580911101813085
S11301B051F028F0823059F0833099F016C081E074
S11301C08093110118C082E0809311011BC08091BB
S11301D00801909109010A97A8F083E08093110126
S11301E028C082E0809311010DC0823059F0833021
S11301F001F1813061F51092090110920801109209
S11302000A0125C0809108019091090180FF09C06D
S1130210E0910A01F0E0E050FF4F208120930B01B0
S113022002C010920B01019690930901809308017A
S11302300EC080910A01823018F010920A0103C0A6
S11302408F5F80930A011092090110920801809136
S11302500B0185B908958FEF84B915B864E670E091
S113026080E090E091DF30DFA0DF809110018823EF
S10F0270E1F310921001F8CFF894FFCFD6
S10B027C01020401000000006E
S9030000FC
