:100000004DC0000068C0000066C0000064C0000071
:1000100062C0000060C000005EC000005CC0000064
:100020005AC0000058C0000056C0000054C0000074
:1000300052C00000B1C000004EC000004CC0000023
:100040004AC0000048C0000046C0000044C0000094
:1000500042C0000040C000003EC000003CC00000A4
:100060003AC0000038C0000036C0000034C00000B4
:1000700032C0000030C000002EC000002CC00000C4
:100080002AC0000028C0000026C000002A012E015E
:10009000320144014A01770161017B0111241FBE35
:1000A000CFEFD0E4DEBFCDBF11E0A0E0B1E0E8EBE0
:1000B000F3E000E00BBF02C007900D92A430B1073F
:1000C000D9F721E0A4E0B1E001C01D92AE30B20743
:1000D000E1F74DD16FC194CF181619065CF0089561
:1000E000000021503109E1F74F5F5F4F84179507FA
:1000F00019F4089540E050E027E033E0F1CF5E9836
:1001000088B95F9A00005F9882E090E0E5CF08959B
:10011000813118F48158F3CF08958155F0CF0895B7
:1001200084E690E0D9DF88E3EADF86E0E8DF8FE06D
:10013000E6DF81E0E4DF8AE090E0CECF08955E9ACA
:1001400088B95F9A00005F9881E090E0C5CF08957C
:100150008BE0809381008DE790E0909389008093FD
:10016000880082E080936F001092850010928400D6
:100170008091000190910101A0910201B0910301D1
:100180008093080190930901A0930A01B0930B0199
:100190008FB780688FBF08951F920F920FB60F928E
:1001A00011248F939F93AF93BF93809108019091F7
:1001B0000901A0910A01B0910B010197A109B109B0
:1001C0008093080190930901A0930A01B0930B0159
:1001D000892B8A2B8B2B99F481E080930C018091E1
:1001E000000190910101A0910201B091030180935F
:1001F000080190930901A0930A01B0930B01BF91EC
:10020000AF919F918F910F900FBE0F901F901895F7
:1002100060930001709301018093020190930301A8
:10022000609308017093090180930A0190930B0178
:10023000089580B18095837080930701E0910D014E
:100240004E2F50E04830510508F059C0FA01EA5BE2
:10025000FF4FA7C081E080930D016BC082E08093C7
:100260000D0160C0813021F486E080930D0175C0DE
:10027000823021F484E080930D0165C0833009F061
:1002800051C080930D015CC081115AC082E08093FF
:100290000D0148C0882339F02091040130910501F7
:1002A0002A30310540F085E080930D0180910601F0
:1002B000811129C02BC0833009F045C080930D0106
:1002C0003FC0882339F020910401309105012A3084
:1002D000310540F087E080930D018091060189305F
:1002E000D0F01CC08330C9F580930D0129C082E095
:1002F00080930D0117C082E080930D0113C081E04F
:1003000080930D0116C08150809306011092050163
:100310001092040107C08F5F8093060110920501BF
:100320001092040180910601805D09DF81E0F0CE2A
:100330000895109206011092050110920401F2CF67
:1003400010920601EFCF8091040190910501019672
:100350009093050180930401E5CF80910401909171
:10036000050101969093050180930401DBCF11B83C
:100370008FEF82B984B915B887B918B88AB91BB894
:1003800064E670E080E090E043DFE2DEC9DE1092D8
:100390000D014FDF80910C018823E1F310920C01D5
:1003A000F8CFEE0FFF1F0024001C0BBE0790F69144
:0803B000E02D0994F894FFCF41
:0403B8000100000040
:00000001FF
