:1000000045C0000060C000005EC000005CC0000091
:100010005AC0000058C0000056C0000054C0000084
:1000200052C0000050C000004EC000004CC0000094
:100030004AC000006DC0000046C0000044C000007F
:1000400042C0000040C000003EC000003CC00000B4
:100050003AC0000038C0000036C0000034C00000C4
:1000600032C0000030C000002EC000002CC00000D4
:100070002AC0000028C0000026C0000024C00000E4
:1000800022C0000020C000001EC0000011241FBEBE
:10009000CFEFD0E4DEBFCDBF11E0A0E0B1E0E2E3FE
:1000A000F3E000E00BBF02C007900D92A830B1074B
:1000B000D9F721E0A8E0B1E001C01D92AC31B20750
:1000C000E1F7CED034C19CCF8BE0809381008DE7E7
:1000D00090E0909389008093880082E080936F0085
:1000E000109285001092840080910001909101018E
:1000F000A0910201B0910301809314019093150126
:10010000A0931601B09317018FB780688FBF089531
:100110001F920F920FB60F9211248F939F93AF935C
:10012000BF938091140190911501A0911601B09197
:1001300017010197A109B10980931401909315014A
:10014000A0931601B0931701892B8A2B8B2B99F45E
:1001500081E0809318018091000190910101A091AC
:100160000201B09103018093140190931501A093B3
:100170001601B0931701BF91AF919F918F910F908E
:100180000FBE0F901F9018956093000170930101AE
:100190008093020190930301609314017093150101
:1001A0008093160190931701089580911A01813070
:1001B00051F018F0823071F00AC081E080931A018A
:1001C00010920801089582E080931A0103C01092F2
:1001D0001A01089580910801E82FF0E0EC5FFE4FCE
:1001E000908190930B01823018F0109208010895CD
:1001F0008F5F80930801089580911901813041F04B
:1002000018F0823059F00EC081E0809319010DC0C2
:1002100082E08093190110920A01089581E0809391
:10022000190103C010921901089588E080930A0112
:10023000089580911B01882319F0813041F004C09A
:1002400081E080931B0103C010921B0108959091DF
:100250000B0180910A01892B8093090185B90895CA
:1002600011B88FEF82B984B915B864E670E080E008
:1002700090E08ADF29DF8091100190911101A09117
:100280001201B0911301883E9340A105B10548F0D9
:10029000B3DF10921001109211011092120110920E
:1002A000130180910C0190910D01A0910E01B0916C
:1002B0000F018C329140A105B10548F076DF109214
:1002C0000C0110920D0110920E0110920F01B1DF7E
:1002D000809118018823E1F31092180180910C019C
:1002E00090910D01A0910E01B0910F018C599F4F7B
:1002F000AF4FBF4F80930C0190930D01A0930E015F
:10030000B0930F018091100190911101A091120101
:10031000B09113018C599F4FAF4FBF4F8093100185
:1003200090931101A0931201B0931301A4CFF894FC
:02033000FFCFFD
:080332000100000001020400BB
:00000001FF
