:100000004EC0000069C0000067C0000065C000006D
:1000100063C0000061C000005FC000005DC0000060
:100020005BC0000059C0000057C0000055C0000070
:1000300053C0000076C000004FC000004DC000005B
:100040004BC0000049C0000047C0000045C0000090
:1000500043C0000041C000003FC000003DC00000A0
:100060003BC0000039C0000037C0000035C00000B0
:1000700033C0000031C000002FC000002DC00000C0
:100080002BC0000029C0000027C0000065016901E5
:100090006D018601900194019E01A201AD01112420
:1000A0001FBECFEFD0E4DEBFCDBF11E0A0E0B1E0D6
:1000B000ECE7F7E000E00BBF02C007900D92A4321E
:1000C000B107D9F721E0A4E2B1E001C01D92A83345
:1000D000B207E1F7BAD150C393CF8BE08093810090
:1000E0008DE790E0909389008093880082E0809370
:1000F0006F001092850010928400809120019091F1
:100100002101A0912201B0912301809330019093AD
:100110003101A0933201B09333018FB780688FBF54
:1001200008951F920F920FB60F9211248F939F93F1
:10013000AF93BF938091300190913101A091320132
:10014000B09133010197A109B109809330019093D7
:100150003101A0933201B0933301892B8A2B8B2B71
:1001600099F481E0809334018091200190912101E4
:10017000A0912201B091230180933001909331012D
:10018000A0933201B0933301BF91AF919F918F91B2
:100190000F900FBE0F901F901895609320017093E1
:1001A0002101809322019093230160933001709389
:1001B000310180933201909333010895CF92DF9201
:1001C000EF92FF926B017C019B01AC0160912401D5
:1001D0007091250180912601909127014BD18823B0
:1001E00009F440C020E030E0A901C701B60142D1C6
:1001F000811104C085B5887085BD03C085B5836055
:1002000085BD28E539E344E75FE3C701B60132D194
:1002100088231CF48FEF87BD1CC020E034E244EF3C
:1002200056E4C701B60138D2181614F417BC11C031
:1002300020E030E040E053E4C701B60131D29B0139
:10024000AC0160E074E284EF9AE418D17FD1615090
:1002500067BD16BCC0922401D0922501E092260110
:10026000F0922701FF90EF90DF90CF90089589E4FE
:1002700084BD8BE085BD60E070E0CB019FCF089529
:1002800014BC15BC089580B18095982F97709093F9
:100290002F01382F317030932E0181FB992790F96F
:1002A000492F90932D0182FB882780F9582F809346
:1002B0002C0120913601822F90E08930910508F0C1
:1002C00050C0FC01EA5BFF4F4EC281E080933601D3
:1002D00055C082E080933601AEC0442341F0311115
:1002E000AAC05111A8C083E080933601A4C0332373
:1002F00031F05111A0C085E0809336019CC0552398
:1003000009F499C087E08093360195C0411193C0EC
:10031000311191C051118FC084E08093360143C0E8
:1003200082E08093360187C0411185C0311183C0BE
:10033000511181C086E08093360144C082E08093F1
:10034000360179C0411177C0311175C0552309F4C8
:1003500072C088E08093360152C082E080933601FB
:100360006AC0243001F120F4213009F064C006C0D5
:10037000263041F1283009F442C05DC010923701A7
:100380008091000190910101A0910201B0910301BF
:100390008093280190932901A0932A01B0932B0107
:1003A0001092350148C080913501882311F068DF33
:1003B00001C05DDF81E090913501911180E0809373
:1003C000350139C080913701873018F48F5F8093F1
:1003D0003701E0913701F0E0EE0FFF1FEE0FFF1F36
:1003E000E050FF4F80819181A281B38180932801E9
:1003F00090932901A0932A01B0932B011CC08091F6
:100400003701882319F0815080933701E09137013B
:10041000F0E0EE0FFF1FEE0FFF1FE050FF4F808157
:100420009181A281B3818093280190932901A093A7
:100430002A01B0932B0160912801709129018091CC
:100440002A0190912B01BACE089511B88FEF82B98D
:1004500088E084B915B864E670E080E090E09DDE45
:100460003CDE05DF10DF809134018823E1F3109238
:100470003401F8CF9CD008F481E008950CD0D2C0AC
:10048000CAD040F0C1D030F021F45F3F19F0B3C0C2
:100490005111FCC0B6C0D7D098F39923C9F35523A6
:1004A000B1F3951B550BBB27AA2762177307840767
:1004B00038F09F5F5F4F220F331F441FAA1FA9F31D
:1004C00033D00E2E3AF0E0E830D091505040E6950F
:1004D000001CCAF729D0FE2F27D0660F771F881F70
:1004E000BB1F261737074807AB07B0E809F0BB0B5F
:1004F000802DBF01FF2793585F4F2AF09E3F510583
:1005000068F079C0C3C05F3FECF3983EDCF386959A
:1005100077956795B795F7959F5FC9F7880F911DF8
:100520009695879597F90895E1E0660F771F881FE4
:10053000BB1F621773078407BA0720F0621B730B97
:10054000840BBA0BEE1F88F7E095089504D06894E9
:10055000B1119CC008957FD088F09F5790F0B92FBB
:100560009927B751A0F0D1F0660F771F881F991F08
:100570001AF0BA95C9F712C0B13081F086D0B1E057
:10058000089583C0672F782F8827B85F39F0B93F67
:10059000CCF3869577956795B395D9F73EF490950A
:1005A0008095709561957F4F8F4F9F4F0895990F5C
:1005B0000008550FAA0BE0E8FEEF16161706E8072D
:1005C000F907C0F012161306E407F50798F0621B4E
:1005D000730B840B950B39F40A2661F0232B242B23
:1005E000252B21F408950A2609F4A140A6958FEF42
:1005F000811D811D089597F99F6780E870E060E094
:1006000008959FEF80EC089500240A9416161706AB
:1006100018060906089500240A94121613061406F3
:1006200005060895092E0394000C11F4882352F056
:10063000BB0F40F4BF2B11F460FF04C06F5F7F4F0E
:100640008F4F9F4F089557FD9058440F551F59F0F5
:100650005F3F71F04795880F97FB991F61F09F3FAF
:1006600079F087950895121613061406551FF2CFD8
:100670004695F1DF08C0161617061806991FF1CF28
:1006800086957105610508940895E894BB2766274F
:100690007727CB0197F908958ADF08F48FEF089543
:1006A0000BD0C0CFB1DF28F0B6DF18F0952309F0EA
:1006B000A2CFA7CF1124EACFC6DFA0F3959FD1F335
:1006C000950F50E0551F629FF001729FBB27F00D00
:1006D000B11D639FAA27F00DB11DAA1F649F662755
:1006E000B00DA11D661F829F2227B00DA11D621FA4
:1006F000739FB00DA11D621F839FA00D611D221F5E
:10070000749F3327A00D611D231F849F600D211D41
:10071000822F762F6A2F11249F5750408AF0E1F0E4
:1007200088234AF0EE0FFF1FBB1F661F771F881F2D
:1007300091505040A9F79E3F510570F05CCFA6CF75
:100740005F3FECF3983EDCF3869577956795B79518
:10075000F795E7959F5FC1F7FE2B880F911D969542
:10076000879597F90895EE0FFF1F0024001C0BBE1C
:0C0770000790F691E02D0994F894FFCF5B
:10077C00A4D082437BD49243A4D0A443719DAE43B6
:10078C000000C4430000DC43A4F0F64300D0024454
:04079C000100000058
:00000001FF
