S01B00006A696D3031315F6C616231315F7061727430302E73726563D1
S11300008AC0000090C000008EC000008CC00000B8
S11300108AC0000088C0000086C0000084C00000C0
S113002082C0000080C000007EC000007CC00000D0
S11300307AC0000078C0000076C0000074C00000E0
S113004072C0000070C000006EC000006CC00000F0
S11300506AC0000068C0000066C0000064C0000000
S113006062C0000060C000005EC000005CC0000010
S11300705AC0000058C0000056C0000054C0000020
S113008052C0000050C000004EC0000019013F01E2
S11300903F013F013F013F013F013F013F013F015C
S11300A03F013F013F013F013F013F013F013F014C
S11300B03F013F013F013F013F013F013F013F013C
S11300C03F013F013F013F013F013F013F013F012C
S11300D03F013D013F013F013F013F013F013F011E
S11300E039013F013F013F013F013F013B011C0139
S11300F01F0122012501270129012B012D012F01B7
S11301003F013F013F013F013F013F013F013101F9
S113011033013501370111241FBECFEFD0E4DEBF18
S1130120CDBF50D0B7C06CCF8FEE88B90000309BE4
S113013029C0319B29C0329B29C0339B29C08FED34
S113014088B90000309B26C0319B26C0329B26C054
S1130150339B26C08FEB88B90000309B23C0319BB2
S113016023C0329B23C0339B23C08FE788B9000090
S1130170309B20C0319B20C0329B20C0339B20C0C9
S113018080E0089581E3089584E3089587E3089562
S11301908AE2089582E3089585E3089588E3089543
S11301A080E3089583E3089586E3089589E3089539
S11301B083E2089581E4089582E4089583E4089530
S11301C084E408958FEF84B915B880EF87B98FE080
S11301D088B90F2EFBE17F2EF02D0F2EFFE08F2E1E
S11301E0F02D0F2EFEE09F2EF02D0F2EFDE0AF2EF2
S11301F0F02D0F2EFCE0BF2EF02D0F2EFBE0CF2EA6
S1130200F02D0F2EFAE0DF2EF02D0F2EF9E0EF2E59
S1130210F02D6894FF24F3F807E016E0D5E0C4E07D
S113022083DF90E08534910550F5FC01EA5BFF4FD4
S113023028C08FE185B9F4CF81E085B9F1CF82E0A0
S113024085B9EECF83E085B9EBCFC5B9E9CFD5B990
S1130250E7CF15B9E5CF05B9E3CFF5B8E1CFE5B8F8
S1130260DFCFD5B8DDCFC5B8DBCFB5B8D9CFA5B80A
S1130270D7CF95B8D5CF15B8D3CF85B8D1CF75B86A
S1130280CFCFEE0FFF1F0024001C0BBE0790F6918A
S10B0290E02D0994F894FFCF5E
S9030000FC
