:1000000045C0000060C000005EC000005CC0000091
:100010005AC0000058C0000056C0000054C0000084
:1000200052C0000050C000004EC000004CC0000094
:100030004AC000007EC0000046C0000044C000006E
:1000400042C0000040C000003EC000003CC00000B4
:100050003AC0000038C0000036C0000034C00000C4
:1000600032C0000030C000002EC000002CC00000D4
:100070002AC0000028C0000026C0000024C00000E4
:1000800022C0000020C000001EC0000011241FBEBE
:10009000CFEFD0E4DEBFCDBF11E0A0E0B1E0EAE9F0
:1000A000F4E000E00BBF02C007900D92A831B10749
:1000B000D9F721E0A8E1B1E001C01D92A433B20755
:1000C000E1F766D1E8C19CCF6093130170931401EE
:1000D000809315019093160160932F017093300166
:1000E000809331019093320108958BE080938100D9
:1000F0008DE790E0909389008093880082E0809360
:100100006F001092850010928400809113019091ED
:100110001401A0911501B091160180932F019093C5
:100120003001A0933101B09332018FB780688FBF47
:1001300008951F920F920FB60F9211248F939F93E1
:10014000AF93BF9380912F0190913001A091310125
:10015000B09132010197A109B10980932F019093C9
:100160003001A0933101B0933201892B8A2B8B2B64
:1001700099F481E0809333018091130190911401EF
:10018000A0911501B091160180932F019093300139
:10019000A0933101B0933201BF91AF919F918F91A4
:1001A0000F900FBE0F901F9018958FEE88B900002A
:1001B000309B29C0319B29C0329B29C0339B29C069
:1001C0008FED88B90000309B26C0319B26C0329B42
:1001D00026C0339B26C08FEB88B90000309B23C01C
:1001E000319B23C0329B23C0339B23C08FE788B948
:1001F0000000309B20C0319B20C0329B20C0339B2D
:1002000020C080E0089581E3089584E3089587E3A2
:1002100008958AE2089582E3089585E3089588E3C6
:10022000089580E3089583E3089586E3089589E3BC
:10023000089583E2089581E4089582E4089583E4B3
:10024000089584E40895CF93C82FAFDFC23061F0E2
:1002500028F4CC2379F0C13051F104C0C33039F017
:10026000C43029F1C0E024C081110CC021C0882312
:1002700069F008C080E380932E0181E08093000143
:10028000C1E016C080932E01C3E012C0809100012E
:10029000803120F081E08093000103C08F5F809364
:1002A000000180912E0180930101C4E001C0C2E0F1
:1002B0008C2FCF910895181619065CF00895000050
:1002C00021503109E1F74F5F5F4F8417950719F40B
:1002D000089540E050E027E033E0F1CF10988BB96B
:1002E000119A0000119882E090E0E5CF089581E036
:1002F000F5CF0895813118F48158F0CF08958155D4
:10030000EDCF089584E690E0D6DF88E3E7DF86E06E
:10031000E5DF8FE0E3DF81E0E1DF8AE090E0CBCF53
:100320000895109A8BB9119A0000119881E090E01D
:10033000C2CF08950F931F93CF93DF93182FEB0134
:10034000D6DF8881882351F001E0010F812FD2DFB1
:100350008991E7DF102F88818111F6CFDF91CF914E
:100360001F910F910895882319F0833038F00EC043
:1003700062E071E081E0DEDF81E0089580910101BB
:10038000D0DF80910001B6DF82E0089580E008951B
:10039000CF93DF9300D000D0CDB7DEB780EF87B921
:1003A0008FE088B98FEF81B912B88AB91BB8A3E280
:1003B000B1E0BA83A983E8E1F1E0FC83EB838C939D
:1003C00041E050E060E070E011964D935D936D93D5
:1003D0007C93149715964D935D936D937C9318972A
:1003E00023E231E01A963C932E9319978083418340
:1003F000528363837483458356836783708783EB5B
:1004000091E09287818762E370E080E090E05CDEBB
:100410006CDE78DF7E0185E0E80EF11CDE011196CE
:100420006D01F601019111916F01D80115964D9161
:100430005D916D917C91189711968D919D910D9084
:10044000BC91A02D481759076A077B0771F4F80182
:1004500080810184F285E02D90E00995D8018C938C
:10046000F8011582168217821086F801858196811F
:10047000A781B0850196A11DB11D85839683A783B1
:10048000B087CE14DF0469F6809133018823E1F34D
:0A04900010923301C3CFF894FFCFA0
:10049A000143436F6E67726174756C6174696F6E44
:0804AA007321000100000000B5
:00000001FF
