S01B00006A696D3031315F6C616230385F7061727430342E73726563C7
S113000045C0000060C000005EC000005CC000008D
S11300105AC0000058C0000056C0000054C0000080
S113002052C0000050C000004EC000004CC0000090
S11300304AC000006DC0000046C0000044C000007B
S113004042C0000040C000003EC000003CC00000B0
S11300503AC0000038C0000036C0000034C00000C0
S113006032C0000030C000002EC000002CC00000D0
S11300702AC0000028C0000026C0000024C00000E0
S113008022C0000020C000001EC0000011241FBEBA
S1130090CFEFD0E4DEBFCDBF11E0A0E0B1E0E4E9F2
S11300A0F2E000E00BBF02C007900D92A630B1074A
S11300B0D9F721E0A6E0B1E001C01D92A331B20757
S11300C0E1F7BCD0E5C09CCF8BE0809381008DE745
S11300D090E0909389008093880082E080936F0081
S11300E01092850010928400809102019091030186
S11300F0A0910401B091050180930A0190930B0132
S1130100A0930C01B0930D018FB780688FBF089541
S11301101F920F920FB60F9211248F939F93AF9358
S1130120BF9380910A0190910B01A0910C01B091B1
S11301300D010197A109B10980930A0190930B0164
S1130140A0930C01B0930D01892B8A2B8B2B99F46E
S113015081E080930E018091020190910301A091AE
S11301600401B091050180930A0190930B01A093BF
S11301700C01B0930D01BF91AF919F918F910F909E
S11301800FBE0F901F9018956093020170930301A6
S1130190809304019093050160930A0170930B010D
S11301A080930C0190930D010895EAE7F0E08081BB
S11301B0806E808308958091780090917900C09733
S11301C09093100180930F0120911101222319F0C3
S11301D0213029F008C081E08093110109C022E098
S11301E0209311010EC0213019F0223001F509C00D
S11301F01092070110920601109209011092080151
S113020016C01092090160910001709101012CD077
S11302106115710561F080E090E0880F8F5F9F5F4A
S1130220292F30E026173707C0F380930901809106
S1130230090185B9809108018BB9089511B88FEF30
S113024082B984B915B88AB91BB8AFDF64E670E027
S113025080E090E099DF38DFAEDF80910E018823E3
S1130260E1F310920E01F8CFAA1BBB1B51E107C0AA
S1130270AA1FBB1FA617B70710F0A61BB70B881F32
S1130280991F5A95A9F780959095BC01CD010895C1
S1070290F894FFCF0C
S10902941400010000004B
S9030000FC
