S01B00006A696D3031315F6C616230385F7061727430312E73726563CA
S113000045C0000060C000005EC000005CC000008D
S11300105AC0000058C0000056C0000054C0000080
S113002052C0000050C000004EC000004CC0000090
S11300304AC000006DC0000046C0000044C000007B
S113004042C0000040C000003EC000003CC00000B0
S11300503AC0000038C0000036C0000034C00000C0
S113006032C0000030C000002EC000002CC00000D0
S11300702AC0000028C0000026C0000024C00000E0
S113008022C0000020C000001EC0000011241FBEBA
S1130090CFEFD0E4DEBFCDBF11E0A0E0B1E0E6E4F5
S11300A0F2E000E00BBF02C007900D92A430B1074C
S11300B0D9F721E0A4E0B1E001C01D92A031B2075C
S11300C0E1F7A9D0BEC09CCF8BE0809381008DE77F
S11300D090E0909389008093880082E080936F0081
S11300E0109285001092840080910001909101018A
S11300F0A0910201B091030180930801909309013A
S1130100A0930A01B0930B018FB780688FBF089545
S11301101F920F920FB60F9211248F939F93AF9358
S1130120BF938091080190910901A0910A01B091B7
S11301300B010197A109B10980930801909309016A
S1130140A0930A01B0930B01892B8A2B8B2B99F472
S113015081E080930C018091000190910101A091B4
S11301600201B09103018093080190930901A093C7
S11301700A01B0930B01BF91AF919F918F910F90A2
S11301800FBE0F901F9018956093000170930101AA
S11301908093020190930301609308017093090115
S11301A080930A0190930B010895EAE7F0E08081BF
S11301B0806E808308952091780030917900309387
S11301C00E0120930D0180910F01882319F08130D5
S11301D029F008C081E080930F0109C082E0809378
S11301E00F010EC0813019F0823071F409C01092F1
S11301F0050110920401109207011092060104C037
S113020020930701309306018091070185B98091FD
S113021006018BB9089511B88FEF82B984B915B866
S11302208AB91BB8C2DF64E670E080E090E0ACDF1E
S11302304BDFC1DF80910C018823E1F310920C01A4
S1090240F8CFF894FFCF93
S107024601000000AF
S9030000FC
