:1000000045C000004BC0000049C0000047C00000D0
:1000100045C0000043C0000041C000003FC00000D8
:100020003DC000003BC0000039C0000037C00000E8
:1000300035C0000033C0000031C000002FC00000F8
:100040002DC000002BC0000029C0000027C0000008
:1000500025C0000023C0000021C000001FC0000018
:100060001DC000001BC0000019C0000017C0000028
:1000700015C0000013C0000011C000000FC0000038
:100080000DC000000BC0000009C0000011241FBEFD
:10009000CFEFD0E4DEBFCDBF20D090C0B1CFCF93A3
:1000A000DF9300D0CDB7DEB789836A838981882F3B
:1000B00090E02A81222F30E002C0959587952A95FD
:1000C000E2F78170992721E0892B09F420E0822F43
:1000D0000F900F90DF91CF9108950F931F93CF93BF
:1000E000DF9300D01F92CDB7DEB781E290E0FC0134
:1000F000108282E290E02FEFFC01208387E290E003
:100100002FEFFC01208388E290E0FC01108280E266
:1001100090E0FC0180818F708A8380E290E0FC0196
:1001200080818B838A818D3018F08FE389831FC093
:100130008A818A3018F08EE3898319C08A818730DA
:1001400018F08BE3898313C08A81853018F088E327
:1001500089830DC08A81833018F080E3898307C0CA
:100160008A81882319F080E2898301C019828A81FB
:10017000853018F489818064898366E08B818FDF04
:10018000882F90E08C010095109565E08B8187DFCA
:10019000882F90E00823192364E08B8180DF882F6B
:1001A00090E080239123892B19F0898180688983CD
:1001B00088E290E02981FC012083A9CFF894FFCF49
:00000001FF
